{
  "contractName": "Report",
  "abi": [
    {
      "inputs": [],
      "payable": false,
      "stateMutability": "nonpayable",
      "type": "constructor"
    },
    {
      "anonymous": false,
      "inputs": [
        {
          "indexed": false,
          "internalType": "uint256",
          "name": "reportId",
          "type": "uint256"
        },
        {
          "indexed": false,
          "internalType": "string",
          "name": "reportHash",
          "type": "string"
        },
        {
          "indexed": false,
          "internalType": "bool",
          "name": "userStatus",
          "type": "bool"
        },
        {
          "indexed": false,
          "internalType": "bool",
          "name": "adminStatus",
          "type": "bool"
        },
        {
          "indexed": false,
          "internalType": "uint256",
          "name": "uploadTime",
          "type": "uint256"
        }
      ],
      "name": "ReportUpdated",
      "type": "event"
    },
    {
      "anonymous": false,
      "inputs": [
        {
          "indexed": false,
          "internalType": "uint256",
          "name": "reportId",
          "type": "uint256"
        },
        {
          "indexed": false,
          "internalType": "string",
          "name": "userId",
          "type": "string"
        },
        {
          "indexed": false,
          "internalType": "string",
          "name": "reportHash",
          "type": "string"
        },
        {
          "indexed": false,
          "internalType": "string",
          "name": "description",
          "type": "string"
        },
        {
          "indexed": false,
          "internalType": "string",
          "name": "dept",
          "type": "string"
        },
        {
          "indexed": false,
          "internalType": "string",
          "name": "city",
          "type": "string"
        },
        {
          "indexed": false,
          "internalType": "bool",
          "name": "userStatus",
          "type": "bool"
        },
        {
          "indexed": false,
          "internalType": "bool",
          "name": "adminStatus",
          "type": "bool"
        },
        {
          "indexed": false,
          "internalType": "uint256",
          "name": "uploadTime",
          "type": "uint256"
        },
        {
          "indexed": false,
          "internalType": "address payable",
          "name": "uploader",
          "type": "address"
        }
      ],
      "name": "ReportUploaded",
      "type": "event"
    },
    {
      "constant": true,
      "inputs": [],
      "name": "name",
      "outputs": [
        {
          "internalType": "string",
          "name": "",
          "type": "string"
        }
      ],
      "payable": false,
      "stateMutability": "view",
      "type": "function"
    },
    {
      "constant": true,
      "inputs": [],
      "name": "reportCount",
      "outputs": [
        {
          "internalType": "uint256",
          "name": "",
          "type": "uint256"
        }
      ],
      "payable": false,
      "stateMutability": "view",
      "type": "function"
    },
    {
      "constant": true,
      "inputs": [
        {
          "internalType": "uint256",
          "name": "",
          "type": "uint256"
        }
      ],
      "name": "reports",
      "outputs": [
        {
          "internalType": "uint256",
          "name": "reportId",
          "type": "uint256"
        },
        {
          "internalType": "string",
          "name": "userId",
          "type": "string"
        },
        {
          "internalType": "string",
          "name": "reportHash",
          "type": "string"
        },
        {
          "internalType": "string",
          "name": "description",
          "type": "string"
        },
        {
          "internalType": "string",
          "name": "dept",
          "type": "string"
        },
        {
          "internalType": "string",
          "name": "city",
          "type": "string"
        },
        {
          "internalType": "bool",
          "name": "userStatus",
          "type": "bool"
        },
        {
          "internalType": "bool",
          "name": "adminStatus",
          "type": "bool"
        },
        {
          "internalType": "uint256",
          "name": "uploadTime",
          "type": "uint256"
        },
        {
          "internalType": "address payable",
          "name": "uploader",
          "type": "address"
        }
      ],
      "payable": false,
      "stateMutability": "view",
      "type": "function"
    },
    {
      "constant": false,
      "inputs": [
        {
          "internalType": "string",
          "name": "_reportHash",
          "type": "string"
        },
        {
          "internalType": "string",
          "name": "_userId",
          "type": "string"
        },
        {
          "internalType": "string",
          "name": "_description",
          "type": "string"
        },
        {
          "internalType": "string",
          "name": "_dept",
          "type": "string"
        },
        {
          "internalType": "string",
          "name": "_city",
          "type": "string"
        },
        {
          "internalType": "bool",
          "name": "_userStatus",
          "type": "bool"
        },
        {
          "internalType": "bool",
          "name": "_adminStatus",
          "type": "bool"
        }
      ],
      "name": "reportProblem",
      "outputs": [],
      "payable": false,
      "stateMutability": "nonpayable",
      "type": "function"
    },
    {
      "constant": false,
      "inputs": [
        {
          "internalType": "string",
          "name": "_reportHash",
          "type": "string"
        }
      ],
      "name": "adminSolved",
      "outputs": [],
      "payable": false,
      "stateMutability": "nonpayable",
      "type": "function"
    },
    {
      "constant": false,
      "inputs": [
        {
          "internalType": "string",
          "name": "_reportHash",
          "type": "string"
        }
      ],
      "name": "userSolved",
      "outputs": [],
      "payable": false,
      "stateMutability": "nonpayable",
      "type": "function"
    }
  ],
  "bytecode": "0x60806040526040518060400160405280600681526020017f5265706f7274000000000000000000000000000000000000000000000000000081525060009080519060200190620000519291906200006b565b5060006001553480156200006457600080fd5b506200011a565b828054600181600116156101000203166002900490600052602060002090601f016020900481019282601f10620000ae57805160ff1916838001178555620000df565b82800160010185558215620000df579182015b82811115620000de578251825591602001919060010190620000c1565b5b509050620000ee9190620000f2565b5090565b6200011791905b8082111562000113576000816000905550600101620000f9565b5090565b90565b6117a0806200012a6000396000f3fe608060405234801561001057600080fd5b50600436106100625760003560e01c806306fdde0314610067578063185c6f84146100ea57806383f8104814610108578063ad47f46814610437578063c942adf7146104f2578063d6b18fd1146107a0575b600080fd5b61006f61085b565b6040518080602001828103825283818151815260200191508051906020019080838360005b838110156100af578082015181840152602081019050610094565b50505050905090810190601f1680156100dc5780820380516001836020036101000a031916815260200191505b509250505060405180910390f35b6100f26108f9565b6040518082815260200191505060405180910390f35b610435600480360360e081101561011e57600080fd5b810190808035906020019064010000000081111561013b57600080fd5b82018360208201111561014d57600080fd5b8035906020019184600183028401116401000000008311171561016f57600080fd5b91908080601f016020809104026020016040519081016040528093929190818152602001838380828437600081840152601f19601f820116905080830192505050505050509192919290803590602001906401000000008111156101d257600080fd5b8201836020820111156101e457600080fd5b8035906020019184600183028401116401000000008311171561020657600080fd5b91908080601f016020809104026020016040519081016040528093929190818152602001838380828437600081840152601f19601f8201169050808301925050505050505091929192908035906020019064010000000081111561026957600080fd5b82018360208201111561027b57600080fd5b8035906020019184600183028401116401000000008311171561029d57600080fd5b91908080601f016020809104026020016040519081016040528093929190818152602001838380828437600081840152601f19601f8201169050808301925050505050505091929192908035906020019064010000000081111561030057600080fd5b82018360208201111561031257600080fd5b8035906020019184600183028401116401000000008311171561033457600080fd5b91908080601f016020809104026020016040519081016040528093929190818152602001838380828437600081840152601f19601f8201169050808301925050505050505091929192908035906020019064010000000081111561039757600080fd5b8201836020820111156103a957600080fd5b803590602001918460018302840111640100000000831117156103cb57600080fd5b91908080601f016020809104026020016040519081016040528093929190818152602001838380828437600081840152601f19601f8201169050808301925050505050505091929192908035151590602001909291908035151590602001909291905050506108ff565b005b6104f06004803603602081101561044d57600080fd5b810190808035906020019064010000000081111561046a57600080fd5b82018360208201111561047c57600080fd5b8035906020019184600183028401116401000000008311171561049e57600080fd5b91908080601f016020809104026020016040519081016040528093929190818152602001838380828437600081840152601f19601f820116905080830192505050505050509192919290505050610dd4565b005b61051e6004803603602081101561050857600080fd5b810190808035906020019092919050505061108a565b604051808b815260200180602001806020018060200180602001806020018a151515158152602001891515151581526020018881526020018773ffffffffffffffffffffffffffffffffffffffff1673ffffffffffffffffffffffffffffffffffffffff16815260200186810386528f818151815260200191508051906020019080838360005b838110156105c05780820151818401526020810190506105a5565b50505050905090810190601f1680156105ed5780820380516001836020036101000a031916815260200191505b5086810385528e818151815260200191508051906020019080838360005b8381101561062657808201518184015260208101905061060b565b50505050905090810190601f1680156106535780820380516001836020036101000a031916815260200191505b5086810384528d818151815260200191508051906020019080838360005b8381101561068c578082015181840152602081019050610671565b50505050905090810190601f1680156106b95780820380516001836020036101000a031916815260200191505b5086810383528c818151815260200191508051906020019080838360005b838110156106f25780820151818401526020810190506106d7565b50505050905090810190601f16801561071f5780820380516001836020036101000a031916815260200191505b5086810382528b818151815260200191508051906020019080838360005b8381101561075857808201518184015260208101905061073d565b50505050905090810190601f1680156107855780820380516001836020036101000a031916815260200191505b509f5050505050505050505050505050505060405180910390f35b610859600480360360208110156107b657600080fd5b81019080803590602001906401000000008111156107d357600080fd5b8201836020820111156107e557600080fd5b8035906020019184600183028401116401000000008311171561080757600080fd5b91908080601f016020809104026020016040519081016040528093929190818152602001838380828437600081840152601f19601f820116905080830192505050505050509192919290505050611410565b005b60008054600181600116156101000203166002900480601f0160208091040260200160405190810160405280929190818152602001828054600181600116156101000203166002900480156108f15780601f106108c6576101008083540402835291602001916108f1565b820191906000526020600020905b8154815290600101906020018083116108d457829003601f168201915b505050505081565b60015481565b600087511161090d57600080fd5b600085511161091b57600080fd5b600084511161092957600080fd5b600073ffffffffffffffffffffffffffffffffffffffff163373ffffffffffffffffffffffffffffffffffffffff16141561096357600080fd5b6040518061014001604052806001548152602001878152602001888152602001868152602001858152602001848152602001831515815260200182151581526020014281526020013373ffffffffffffffffffffffffffffffffffffffff16815250600260006001548152602001908152602001600020600082015181600001556020820151816001019080519060200190610a009291906116c6565b506040820151816002019080519060200190610a1d9291906116c6565b506060820151816003019080519060200190610a3a9291906116c6565b506080820151816004019080519060200190610a579291906116c6565b5060a0820151816005019080519060200190610a749291906116c6565b5060c08201518160060160006101000a81548160ff02191690831515021790555060e08201518160060160016101000a81548160ff02191690831515021790555061010082015181600701556101208201518160080160006101000a81548173ffffffffffffffffffffffffffffffffffffffff021916908373ffffffffffffffffffffffffffffffffffffffff1602179055509050506001600081548092919060010191905055507ff11152f60380c999eceea0457ab7b8481f9fdae95c3bc56b0b367aae9f0fb799600154878988888888884233604051808b815260200180602001806020018060200180602001806020018a151515158152602001891515151581526020018881526020018773ffffffffffffffffffffffffffffffffffffffff1673ffffffffffffffffffffffffffffffffffffffff16815260200186810386528f818151815260200191508051906020019080838360005b83811015610bec578082015181840152602081019050610bd1565b50505050905090810190601f168015610c195780820380516001836020036101000a031916815260200191505b5086810385528e818151815260200191508051906020019080838360005b83811015610c52578082015181840152602081019050610c37565b50505050905090810190601f168015610c7f5780820380516001836020036101000a031916815260200191505b5086810384528d818151815260200191508051906020019080838360005b83811015610cb8578082015181840152602081019050610c9d565b50505050905090810190601f168015610ce55780820380516001836020036101000a031916815260200191505b5086810383528c818151815260200191508051906020019080838360005b83811015610d1e578082015181840152602081019050610d03565b50505050905090810190601f168015610d4b5780820380516001836020036101000a031916815260200191505b5086810382528b818151815260200191508051906020019080838360005b83811015610d84578082015181840152602081019050610d69565b50505050905090810190601f168015610db15780820380516001836020036101000a031916815260200191505b509f5050505050505050505050505050505060405180910390a150505050505050565b600080905060008090505b6001548111610f0457826040516020018082805190602001908083835b60208310610e1f5780518252602082019150602081019050602083039250610dfc565b6001836020036101000a03801982511681845116808217855250505050505090500191505060405160208183030381529060405280519060200120600260008381526020019081526020016000206002016040516020018082805460018160011615610100020316600290048015610ece5780601f10610eac576101008083540402835291820191610ece565b820191906000526020600020905b815481529060010190602001808311610eba575b5050915050604051602081830303815290604052805190602001201415610ef757809150610f04565b8080600101915050610ddf565b5060016002600083815260200190815260200160002060060160016101000a81548160ff0219169083151502179055507ff22180acee44108c0a6d027ddeb637fba5deb056c7b5951a7393084175a7089c81600260008481526020019081526020016000206002016002600085815260200190815260200160002060060160009054906101000a900460ff166002600086815260200190815260200160002060060160019054906101000a900460ff166002600087815260200190815260200160002060070154604051808681526020018060200185151515158152602001841515151581526020018381526020018281038252868181546001816001161561010002031660029004815260200191508054600181600116156101000203166002900480156110745780601f1061104957610100808354040283529160200191611074565b820191906000526020600020905b81548152906001019060200180831161105757829003601f168201915b5050965050505050505060405180910390a15050565b6002602052806000526040600020600091509050806000015490806001018054600181600116156101000203166002900480601f01602080910402602001604051908101604052809291908181526020018280546001816001161561010002031660029004801561113c5780601f106111115761010080835404028352916020019161113c565b820191906000526020600020905b81548152906001019060200180831161111f57829003601f168201915b505050505090806002018054600181600116156101000203166002900480601f0160208091040260200160405190810160405280929190818152602001828054600181600116156101000203166002900480156111da5780601f106111af576101008083540402835291602001916111da565b820191906000526020600020905b8154815290600101906020018083116111bd57829003601f168201915b505050505090806003018054600181600116156101000203166002900480601f0160208091040260200160405190810160405280929190818152602001828054600181600116156101000203166002900480156112785780601f1061124d57610100808354040283529160200191611278565b820191906000526020600020905b81548152906001019060200180831161125b57829003601f168201915b505050505090806004018054600181600116156101000203166002900480601f0160208091040260200160405190810160405280929190818152602001828054600181600116156101000203166002900480156113165780601f106112eb57610100808354040283529160200191611316565b820191906000526020600020905b8154815290600101906020018083116112f957829003601f168201915b505050505090806005018054600181600116156101000203166002900480601f0160208091040260200160405190810160405280929190818152602001828054600181600116156101000203166002900480156113b45780601f10611389576101008083540402835291602001916113b4565b820191906000526020600020905b81548152906001019060200180831161139757829003601f168201915b5050505050908060060160009054906101000a900460ff16908060060160019054906101000a900460ff16908060070154908060080160009054906101000a900473ffffffffffffffffffffffffffffffffffffffff1690508a565b600080905060008090505b600154811161154057826040516020018082805190602001908083835b6020831061145b5780518252602082019150602081019050602083039250611438565b6001836020036101000a0380198251168184511680821785525050505050509050019150506040516020818303038152906040528051906020012060026000838152602001908152602001600020600201604051602001808280546001816001161561010002031660029004801561150a5780601f106114e857610100808354040283529182019161150a565b820191906000526020600020905b8154815290600101906020018083116114f6575b505091505060405160208183030381529060405280519060200120141561153357809150611540565b808060010191505061141b565b5060016002600083815260200190815260200160002060060160006101000a81548160ff0219169083151502179055507ff22180acee44108c0a6d027ddeb637fba5deb056c7b5951a7393084175a7089c81600260008481526020019081526020016000206002016002600085815260200190815260200160002060060160009054906101000a900460ff166002600086815260200190815260200160002060060160019054906101000a900460ff166002600087815260200190815260200160002060070154604051808681526020018060200185151515158152602001841515151581526020018381526020018281038252868181546001816001161561010002031660029004815260200191508054600181600116156101000203166002900480156116b05780601f10611685576101008083540402835291602001916116b0565b820191906000526020600020905b81548152906001019060200180831161169357829003601f168201915b5050965050505050505060405180910390a15050565b828054600181600116156101000203166002900490600052602060002090601f016020900481019282601f1061170757805160ff1916838001178555611735565b82800160010185558215611735579182015b82811115611734578251825591602001919060010190611719565b5b5090506117429190611746565b5090565b61176891905b8082111561176457600081600090555060010161174c565b5090565b9056fea265627a7a723158203776a9e6c446ec83bf04b1ac3d72933b833e2468935bd03fb96b873ea1a634bd64736f6c63430005100032",
  "source": "pragma solidity >=0.4.22 <0.9.0;\r\n\r\ncontract Report {\r\n    string public name = 'Report';  //Name of the smart contract\r\n    uint public reportCount = 0;\r\n    mapping(uint => ReportInstance) public reports; //Mapping for the files\r\n\r\n  struct ReportInstance\r\n  {\r\n    uint reportId;\r\n    string userId;\r\n    string reportHash;\r\n    string description;\r\n    string dept;\r\n    string city;\r\n    bool userStatus;\r\n    bool adminStatus;\r\n    uint uploadTime;\r\n    address payable uploader;\r\n  }\r\n\r\n  event ReportUploaded( //Event to be emitted when a file is uploaded\r\n    uint reportId,\r\n    string userId,\r\n    string reportHash,\r\n    string description,\r\n    string dept,\r\n    string city,\r\n    bool userStatus,\r\n    bool adminStatus,\r\n    uint uploadTime,\r\n    address payable uploader\r\n  );\r\n\r\n  event ReportUpdated(\r\n    uint reportId,\r\n    string reportHash,\r\n    bool userStatus,\r\n    bool adminStatus,\r\n    uint uploadTime\r\n  );\r\n\r\n  constructor() public {\r\n\r\n  }\r\n\r\n  //For uploading a file to the blockchain\r\n  function reportProblem(\r\n    string memory _reportHash,\r\n    string memory _userId,\r\n    string memory _description,\r\n    string memory _dept,\r\n    string memory _city,\r\n    bool _userStatus,\r\n    bool _adminStatus) public {\r\n    \r\n    require(bytes(_reportHash).length > 0); //File Hash should exist\r\n    require(bytes(_description).length > 0); //File Description is given\r\n    require(bytes(_dept).length > 0);\r\n    require(msg.sender != address(0));  //File Uploader address exists\r\n\r\n    //Actual File Uploading\r\n    reports[reportCount] = ReportInstance(reportCount, _userId, _reportHash, _description, _dept, _city, _userStatus, _adminStatus, block.timestamp, msg.sender);\r\n    reportCount++;\r\n\r\n    emit ReportUploaded(reportCount, _userId, _reportHash, _description, _dept, _city, _userStatus, _adminStatus, block.timestamp, msg.sender);\r\n  }\r\n\r\nfunction adminSolved(string memory _reportHash) public {\r\n      uint index = 0;\r\n      for(uint i=0; i<=reportCount; i++) {\r\n          if (keccak256(abi.encodePacked((reports[i].reportHash))) == keccak256(abi.encodePacked((_reportHash)))) {\r\n              index = i;\r\n              break;\r\n          }\r\n      }\r\n\r\n      reports[index].adminStatus = true;\r\n      emit ReportUpdated(index, reports[index].reportHash, reports[index].userStatus, reports[index].adminStatus, reports[index].uploadTime);\r\n  }\r\n\r\n  function userSolved(string memory _reportHash) public {\r\n      uint index = 0;\r\n      for(uint i=0; i<=reportCount; i++) {\r\n          if (keccak256(abi.encodePacked((reports[i].reportHash))) == keccak256(abi.encodePacked((_reportHash)))) {\r\n              index = i;\r\n              break;\r\n          }\r\n      }\r\n\r\n      reports[index].userStatus = true;\r\n      emit ReportUpdated(index, reports[index].reportHash, reports[index].userStatus, reports[index].adminStatus, reports[index].uploadTime);\r\n  }\r\n\r\n  // function getReport(string memory city) public returns (ReportInstance [10] memory){\r\n  //   ReportInstance[10] memory res;\r\n  //   uint index=0;\r\n\r\n  //   for(uint i=0; i<reportCount; i++) {\r\n  //     if (keccak256(abi.encodePacked((reports[i].city))) == keccak256(abi.encodePacked((city)))) {\r\n  //       res[index] = reports[i];\r\n  //       index++;\r\n  //     }\r\n\r\n  //     if (index >= 10) {\r\n  //       break;\r\n  //     }\r\n  //   }\r\n\r\n  //   return res;\r\n  // }\r\n}",
  "sourcePath": "G:\\hackathon\\reports-data-api\\contracts\\Report.sol",
  "compiler": {
    "name": "solc",
    "version": "0.5.16+commit.9c3226ce.Emscripten.clang"
  },
  "schemaVersion": "3.4.3",
  "updatedAt": "2021-10-30T08:50:56.849Z",
  "networkType": "ethereum",
  "devdoc": {
    "methods": {}
  },
  "userdoc": {
    "methods": {}
  }
}